S0150000547261666669635F4C696768742E73726563F9
S11300000C942A000C94C4010C943F000C943F00FF
S11300100C943F000C943F000C943F000C943F0060
S11300200C943F000C943F000C943F000C943F0050
S11300300C943F000C943F000C943F000C943F0040
S11300400C943F000C943F000C943F000C943F0030
S11300500C943F0011241FBECFE5D8E0DEBFCDBF16
S113006010E0A0E6B0E0EAE5FAE002C005900D92E7
S1130070A236B107D9F70E94F2010C942B050C9417
S1130080000060E081E40E94D70161E081E40E9405
S1130090D70162E081E40E94D70160E082E40E941B
S11300A0D70161E082E40E94D70162E082E40E9409
S11300B0D70162E084E40E94D001789485B783601C
S11300C085BF8BB780648BBF0E944C030895CF9388
S11300D0DF9380916000823009F498C0833009F482
S11300E0FCC0813009F04DC160E081E40E94DE0172
S11300F062E082E40E94DE01C0E0D0E009C08AEF41
S113010090E00E944E0380916100882321F02196A3
S1130110C431D105A4F380916000813009F053C04B
S11301208091610081114FC060E081E40E94E5018B
S113013062E082E40E94E501C0E0D0E00DC061E02D
S113014081E40E94EC0161E082E40E94EC0184EF0E
S113015091E00E944E032196CA30D10584F361E0F8
S113016081E40E94E50161E082E40E94E50162E02D
S113017081E40E94DE0160E082E40E94DE0188E8FE
S113018093E10E944E0362E081E40E94E50160E095
S113019082E40E94E501C0E0D0E00DC061E081E4AA
S11301A00E94EC0161E082E40E94EC0184EF91E0A2
S11301B00E944E032196CA30D10584F380916000D9
S11301C081508093600060E081E40E94E50162E078
S11301D082E40E94E50181E08093610080916000E7
S11301E08F5F80936000CDC061E081E40E94EC01E8
S11301F061E082E40E94EC0184EF91E00E944E03EE
S113020080916100882339F0219602C0C0E0D0E0DB
S1130210CA30D1054CF380916000823009F04CC0A3
S113022080916100882379F047C061E081E40E94F5
S1130230EC0161E082E40E94EC0184EF91E00E9411
S11302404E03219602C0C0E0D0E0CA30D1056CF361
S113025061E081E40E94E50161E082E40E94E5013D
S113026062E081E40E94DE0160E082E40E94DE013B
S113027088E893E10E944E0362E081E40E94E50174
S113028060E082E40E94E501C0E0D0E00DC061E0DE
S113029081E40E94EC0161E082E40E94EC0184EFBD
S11302A091E00E944E032196CA30D10584F38091D7
S11302B0600082508093600061E081E40E94E50167
S11302C061E082E40E94E501809160008F5F809389
S11302D0600081E08093610054C062E081E40E9488
S11302E0DE0160E082E40E94DE01C0E0D0E009C0EB
S11302F084EF91E00E944E0380916100882321F0F5
S11303002196CA30D105A4F3809160008330D9F4DA
S113031080916100811117C060E082E40E94DE01D7
S113032062E081E40E94DE0188E893E10E944E03CA
S113033060E082E40E94E50162E081E40E94E5015C
S113034081E08093610062E081E40E94E50160E065
S113035082E40E94E501C0E0D0E00DC061E081E4E8
S11303600E94EC0161E082E40E94EC0184EF91E0E0
S11303700E944E032196CA30D10584F381E0809314
S11303806000DF91CF9108951F920F920FB60F92E4
S11303901124109261000F900FBE0F901F901895BA
S11303A0982F862F40E0692F0E94F7010895982F17
S11303B0862F41E0692F0E94F7010895982F862F18
S11303C041E0692F0E9482020895982F862F40E011
S11303D0692F0E9482020895982F862F692F0E9408
S11303E00D0308950E9441000E946700FDCF62340E
S11303F059F118F4613441F00895633409F444C0A8
S1130400643409F460C0089541110EC04AB321E078
S113041030E0B90102C0660F771F8A95E2F7CB017D
S1130420809584238ABB0895413009F06AC04AB399
S113043021E030E0B90102C0660F771F8A95E2F728
S1130440CB01842B8ABB089541110EC047B321E030
S113045030E0B90102C0660F771F8A95E2F7CB013D
S11304608095842387BB0895413009F04AC047B37F
S113047021E030E0B90102C0660F771F8A95E2F7E8
S1130480CB01842B87BB089541110EC044B321E0F6
S113049030E0B90102C0660F771F8A95E2F7CB01FD
S11304A08095842384BB0895413059F544B321E0F9
S11304B030E0B90102C0660F771F8A95E2F7CB01DD
S11304C0842B84BB089541110EC044B321E030E075
S11304D0B90102C0660F771F8A95E2F7CB018095B8
S11304E0842384BB0895413061F444B321E030E0B7
S11304F0B90102C0660F771F8A95E2F7CB01842BFE
S113050084BB0895623459F118F4613441F00895BC
S1130510633409F444C0643409F460C0089541119B
S11305200EC04BB321E030E0B90102C0660F771F63
S11305308A95E2F7CB01809584238BBB08954130E3
S113054009F06AC04BB321E030E0B90102C0660F84
S1130550771F8A95E2F7CB01842B8BBB0895411159
S11305600EC048B321E030E0B90102C0660F771F26
S11305708A95E2F7CB018095842388BB08954130A6
S113058009F04AC048B321E030E0B90102C0660F67
S1130590771F8A95E2F7CB01842B88BB089541111C
S11305A00EC045B321E030E0B90102C0660F771FE9
S11305B08A95E2F7CB018095842385BB0895413069
S11305C059F545B321E030E0B90102C0660F771F49
S11305D08A95E2F7CB01842B85BB089541110EC0A7
S11305E045B321E030E0B90102C0660F771F8A9558
S11305F0E2F7CB018095842385BB0895413061F4F3
S113060045B321E030E0B90102C0660F771F8A9537
S1130610E2F7CB01842B85BB08956234B1F018F462
S1130620613431F008956334E9F0643441F108959C
S11306304BB321E030E0B90102C0660F771F8A9501
S1130640E2F7CB0184278BBB089548B321E030E067
S1130650B90102C0660F771F8A95E2F7CB018427A0
S113066088BB089545B321E030E0B90102C0660FAC
S1130670771F8A95E2F7CB01842785BB089545B39C
S113068021E030E0B90102C0660F771F8A95E2F7D6
S1130690CB01842785BB089513BE0895CF93DF93C0
S11306A08F3F910509F048F420E031E0A901481B8F
S11306B0590BCA01E1E0F0E022C0813051E0950716
S11306C0D0F0EC01BC0180E090E00E94DB0320E06C
S11306D030E040E85BE30E9482040E9495030E949C
S11306E0AC03FB01CE01BF010E94170580E091E03D
S11306F0861B970B04C0E1E0F0E080E090E082BF4D
S113070083B7856083BF20E030E008C008B600FEF0
S1130710FDCF88B7816088BF2F5F3F4F2E173F07FB
S1130720A8F313BEDF91CF9108950E94630490F063
S11307309F3748F4911116F40C947C0460E070E047
S113074080E89FE3089526F01B16611D711D811D2D
S11307500C9418040C9433040E94490488F09F57A5
S113076098F0B92F9927B751B0F0E1F0660F771FD1
S1130770881F991F1AF0BA95C9F714C0B13091F0C7
S11307800E947B04B1E008950C947B04672F782FBA
S11307908827B85F39F0B93FCCF38695779567958C
S11307A0B395D9F73EF490958095709561957F4FF8
S11307B08F4F9F4F0895E89409C097FB3EF490959E
S11307C08095709561957F4F8F4F9F4F9923A9F026
S11307D0F92F96E9BB279395F695879577956795B5
S11307E0B795F111F8CFFAF4BB0F11F460FF1BC0F9
S11307F06F5F7F4F8F4F9F4F16C0882311F096E98C
S113080011C0772321F09EE8872F762F05C0662339
S113081071F096E8862F70E060E02AF09A95660FF2
S1130820771F881FDAF7880F9695879597F90895AB
S1130830882371F4772321F09850872B762F07C0F3
S1130840662311F499270DC09051862B70E060E067
S11308502AF09A95660F771F881FDAF7880F969506
S1130860879597F908959F3F31F0915020F487952B
S113087077956795B795880F911D9695879597F904
S1130880089557FD9058440F551F59F05F3F71F07C
S11308904795880F97FB991F61F09F3F79F08795E3
S11308A00895121613061406551FF2CF4695F1DF6C
S11308B008C0161617061806991FF1CF86957105FC
S11308C06105089408950E944904A0F0BEE7B91791
S11308D088F4BB279F3860F41616B11D672F782F54
S11308E08827985FF7CF869577956795B11D93957F
S11308F09639C8F30895E894BB2766277727CB0178
S113090097F908950E9495040C9406050E94F80432
S113091038F00E94FF0420F0952311F00C94EF04AA
S11309200C94F50411240C947C040E94410470F38B
S1130930959FC1F3950F50E0551F629FF001729F80
S1130940BB27F00DB11D639FAA27F00DB11DAA1F8F
S1130950649F6627B00DA11D661F829F2227B00DDC
S1130960A11D621F739FB00DA11D621F839FA00D67
S1130970611D221F749F3327A00D611D231F849FB7
S1130980600D211D822F762F6A2F11249F5750400E
S11309909AF0F1F088234AF0EE0FFF1FBB1F661F89
S11309A0771F881F91505040A9F79E3F510580F052
S11309B00C94EF040C947C045F3FE4F3983ED4F36E
S11309C0869577956795B795F795E7959F5FC1F7F6
S11309D0FE2B880F911D9695879597F9089597F9A1
S11309E09F6780E870E060E008959FEF80EC0895D1
S11309F000240A94161617061806090608950024FA
S1130A000A9412161306140605060895092E039473
S1130A10000C11F4882352F0BB0F40F4BF2B11F4E7
S1130A2060FF04C06F5F7F4F8F4F9F4F0895AA1BD5
S1130A30BB1B51E107C0AA1FBB1FA617B70710F0C5
S1130A40A61BB70B881F991F5A95A9F780959095F7
S10D0A50BC01CD010895F894FFCF16
S1050A5A010194
S9030000FC
